:0A00BE003F065B4F666D7D077F6F04
:09005E0093F580C2A67F057E0027
:10006700D3EF9400EE940040147D727C00ED1D7078
:0D007700011CED4C70F7EF1F70E61E80E3DA
:010084002259
:10000300EF75F06484FEEF75F06484E5F075F00A33
:1000130084FBEF75F00A84AAF07580FFD2A7758080
:10002300FEC2A7D2A6AF06EF9000BE12005E758097
:10003300FFD2A77580FDC2A7D2A6AF03EF12005E61
:100043007580FFD2A77580FBC2A7D2A6AF02EF933C
:0B005300F580C2A67F057E000200675A
:0C00A600D28C758901758C4B758AFD2287
:100085001200A6308D14C28D758C4B758AFD05083E
:10009500E508B41405E4F5080509AF091200038065
:0100A500E278
:030000000200B249
:0C00B200787FE4F6D8FD75810902008516
:00000001FF
