:0A0161003F065B4F666D7D077F6F60
:1001170012015612013E308F15C28F758D4B758BAC
:10012700FD0508E508B40A06E4F5086390FFAF8A01
:070137007E0012000380DFCF
:0B015600D28C438905E4F58CF58A2269
:0C013E00D28E438910758D4B758BFD220D
:0C00ED00F583E493F580C2A67F057E0039
:1000F900D3EF9400EE940040147D727C00ED1D70E6
:0D010900011CED4C70F7EF1F70E61E80E347
:0101160022C6
:04000300AB07AA0697
:100007007C007D641200988F828E837C007D64AFB4
:1000170003AE021200987E007F0ACFCDCFCECCCEA2
:100027001200988E098F0AAE02AF037C007D0A1278
:100037000098AB05AA047580FFD2A77580FEC2A7FA
:10004700D2A6AE83AF8274612FF58274013E12008F
:10005700ED7580FFD2A77580FDC2A7D2A674612572
:100067000AF582740135091200ED7580FFD2A77574
:1000770080FBC2A7D2A6AE02AF0374612FF58274CC
:10008700013EF583E493F580C2A67F057E0002005A
:01009700F96F
:0300000002014AB0
:0C014A00787FE4F6D8FD75810A020117E9
:10009800BC000BBE0029EF8DF084FFADF022E4CC4C
:1000A800F875F008EF2FFFEE33FEEC33FCEE9DEC15
:1000B800984005FCEE9DFE0FD5F0E9E4CEFD22ED5B
:1000C800F8F5F0EE8420D21CFEADF075F008EF2FA5
:1000D800FFED33FD4007985006D5F0F222C398FD96
:0500E8000FD5F0EA2233
:00000001FF
