:10008F00E0EE016D016D01EFEFC797F700E7F98122
:10009F000000E7E7E7E7C7E78181C7F3F99981C375
:0800AF00C38199F9E39981C3B3
:10000300750E00750F80E4F50AF50BE4F50CF50D9C
:10001300E4F508F509E50BAE0A7803C333CE33CE16
:10002300D8F9248FF58274003EF583E5822509F51E
:1000330082E5833508F583E493FF1200B7AF0F120F
:1000430000B7D2B6C2B6AF0F7801EF08800103D86C
:10005300FD750E00F50F0509E50970020508C39447
:1000630008E508940040AE050DE50D7002050CC3CC
:1000730094E8E50C94034098050BE50B7002050A20
:0C008300C39405E50A94004082020009C5
:1000B700C2B5C2B6E4FEEF30E004D2B48002C2B4E7
:0C00C700D2B5EFC313FFC2B50EBE08EAAD
:0100D300220A
:030000000200D427
:0C00D400787FE4F6D8FD75810F02000370
:00000001FF
