:1002C5001202D6750B4E750A617509BC750800805A
:0102D500F236
:10029500D3EF9400EE940040147D727C00ED1D7048
:0D02A500011CED4C70F7EF1F70E61E80E3AA
:0102B2002229
:1002D600D2AFD2A9D28C758901758C4B758AFE2254
:03000B0002024CA2
:10024C00C0E0C0F0C083C082C0D075D000C000C078
:10025C0001C002C003C004C005C006C007758C4BAA
:10026C00758AFEAF0BAE0AAD09AC0812000ED007B2
:10027C00D006D005D004D003D002D001D000D0D00D
:09028C00D082D083D0F0D0E03222
:1002B300FEFDFBF7EFDFBF7F3F065B4F666D7D07FC
:0202C3007F6F4B
:08000E008F0F8E0E8D0D8C0C7E
:100016007580FFD2A7E5109002B393F580C2A7E5DD
:1000260010B408004003020173900036F8282873C4
:1000360002004E02006302008B0200B30200D902E6
:1000460000FE020122020150D2A67B807A967998A0
:100056007800AF0FAE0EAD0DAC0C020143D2A67BFD
:10006600807A9679987800AF0FAE0EAD0DAC0C1273
:1000760001BAAC00AD01AE02AF037B407A42790F04
:100086007800020143D2A67B407A42790F7800AF0E
:100096000FAE0EAD0DAC0C1201BAAC00AD01AE0246
:1000A600AF037BA07A8679017800020143D2A67B52
:1000B600A07A8679017800AF0FAE0EAD0DAC0C12AA
:1000C60001BAAC00AD01AE02AF03E47B107A27F9AA
:1000D600F8806AD2A6E47B107A27F9F8AF0FAE0E45
:1000E600AD0DAC0C1201BAAC00AD01AE02AF03E42B
:1000F6007BE87A03F9F88045D2A6E47BE87A03F92F
:10010600F8AF0FAE0EAD0DAC0C1201BAAC00AD01DE
:10011600AE02AF03E47B64FAF9F88021D2A6E47B51
:1001260064FAF9F8AF0FAE0EAD0DAC0C1201BAAC15
:1001360000AD01AE02AF03E47B0AFAF9F81201BA88
:1001460074BB2FF58274023E801BD2A6E47B0AFAAA
:10015600F9F8AF0FAE0EAD0DAC0C1201BA74BB2B95
:10016600F58274023AF583E493F580C2A60510E59C
:0701760010B40803E4F510CA
:01017D00225F
:030000000202E613
:0C02E600787FE4F6D8FD7581100202C597
:10017E0075F008758200EF2FFFEE33FECD33CDCC38
:10018E0033CCC58233C5829BED9AEC99E5829840BB
:10019E000CF582EE9BFEED9AFDEC99FC0FD5F0D698
:1001AE00E4CEFBE4CDFAE4CCF9A88222B800C1B9C2
:1001BE000059BA002DEC8BF084CFCECDFCE5F0CB00
:1001CE00F97818EF2FFFEE33FEED33FDEC33FCEB39
:1001DE0033FB10D703994004EB99FB0FD8E5E4F9F4
:1001EE00FA227818EF2FFFEE33FEED33FDEC33FCE1
:1001FE00C933C910D7059BE99A4007EC9BFCE99AD5
:10020E00F90FD8E0E4C9FAE4CCFB2275F010EF2F19
:10021E00FFEE33FEED33FDCC33CCC833C810D70719
:10022E009BEC9AE899400AED9BFDEC9AFCE899F854
:0E023E000FD5F0DAE4CDFBE4CCFAE4C8F922E7
:00000001FF
