:0D01F6003F065B4F666D7D077F6FFEFDFBD2
:10017F001201D8C2AF7F0112010F7509008F0AD289
:0A018F00AF7F057E0012014480E9F5
:10014400D3EF9400EE940040147D727C00ED1D709A
:0D015400011CED4C70F7EF1F70E61E80E3FC
:01016100227B
:1001D800D2AFD2A9D28C758901758CED758AFF22B0
:03000B000200CA26
:1000CA00C0E0C0F0C083C082C0D075D000C000C0FC
:1000DA0001C002C003C004C005C006C007758CED8C
:1000EA00758AFFAF0AAE0912000ED007D006D005F6
:1000FA00D004D003D002D001D000D0D0D082D08397
:05010A00D0F0D0E0324E
:10000E007580FFD2A7E50890020093F580C2A7E5A0
:10001E000814600F14602C24027041D2A67C007D5F
:10002E00648013D2A67C007D641200757E007F0A68
:10003E00CFCDCFCECCCE12007574F62FF5827401D3
:10004E003E8011D2A67C007D0A12007574F62DF545
:10005E008274013CF583E493F580C2A60508E50899
:06006E00B40303E4F508F1
:010074002269
:020003000022D9
:0C020300D2A1D2A0120003C2A00200038E
:0E01E800C2A1C2A0D2A1120003D2A002000345
:03019900120162EE
:10019C00C2A1D2A112000330A004C2A1D322C2A1D9
:0201AC00C3226C
:1001AE00C2A1300104D2A08002C2A0D2A1120003CB
:0501BE00C2A1D2A02245
:10016200E4FEC2A1EF30E704D2A08002C2A0D2A175
:0C017200EF25E0FF0EBE08EAC2A1D2A0FB
:01017E00225E
:1001C300E4FEEF25E0FFC2A1D2A130A00343070163
:0401D3000EBE08EE66
:0101D7002205
:02010F00AD073A
:100111001202037F901201995004D2008002C200A2
:10012100AF051201991202037F9112016212019C23
:100131005004D2008002C2001201C3D2011201AEEA
:030141000201E8D0
:0300000002020FEA
:0C020F00787FE4F6D8FD75812002017FA5
:10007500BC000BBE0029EF8DF084FFADF022E4CC6F
:10008500F875F008EF2FFFEE33FEEC33FCEE9DEC38
:10009500984005FCEE9DFE0FD5F0E9E4CEFD22ED7E
:1000A500F8F5F0EE8420D21CFEADF075F008EF2FC8
:1000B500FFED33FD4007985006D5F0F222C398FDB9
:0500C5000FD5F0EA2256
:00000001FF
