:10007200B2E2CAD4CAB9D3C3A3ACB2E2CAD4CAB92F
:0D008200D3C3323032312E30312E323300F4
:10008F001200C4D2997BFF7A007972120003309963
:0C009F00FDC2997FE87E0312005480E748
:1000C400C29FD29ED28E438920758DFD758BFD22F1
:10005400D3EF9400EE940040147D727C00ED1D708B
:0D006400011CED4C70F7EF1F70E61E80E3ED
:01007100226C
:030000000200D427
:0C00D400787FE4F6D8FD75810702008FEC
:100003001200AB601CFF09E970010AC0E0EAC0E01E
:10001300EBC0E012002DD0E0FBD0E0FAD0E0F98095
:0A002300DF7F0A12002DE4FEFF2229
:1000AB00BB010689828A83E0225002E722BBFE0253
:0900BB00E32289828A83E4932286
:10002D00EFB40A07740D120038740A309811A899AC
:10003D00B8130CC2983098FDA899C298B811F63033
:07004D0099FDC299F599220B
:00000001FF
