:0A0113003F065B4F666D7D077F6FAE
:07011D007F6F7E000200036A
:0C00DD00F583E493F580C2A67F057E0049
:1000E900D3EF9400EE940040147D727C00ED1D70F6
:0D00F900011CED4C70F7EF1F70E61E80E358
:0101060022D6
:04000300AB07AA0697
:100007007C007D641200888E088F097C007D64AFB8
:1000170003AE021200887E007F0ACFCDCFCECCCEB2
:100027001200888E0A8F0BAE02AF037C007D0A1286
:100037000088AB05AA047580FFD2A77580FEC2A70A
:10004700D2A674132509F582740135081200DD75EF
:1000570080FFD2A77580FDC2A7D2A67413250BF522
:10006700827401350A1200DD7580FFD2A77580FB07
:10007700C2A7D2A674132BF58274013A1200DD8051
:01008700B5C3
:03000000020107F3
:0C010700787FE4F6D8FD75810B02011D25
:10008800BC000BBE0029EF8DF084FFADF022E4CC5C
:10009800F875F008EF2FFFEE33FEEC33FCEE9DEC25
:1000A800984005FCEE9DFE0FD5F0E9E4CEFD22ED6B
:1000B800F8F5F0EE8420D21CFEADF075F008EF2FB5
:1000C800FFED33FD4007985006D5F0F222C398FDA6
:0500D8000FD5F0EA2243
:00000001FF
