:0A0152003F065B4F666D7D077F6F6F
:1001170012013A308D14C28D758C4B758AFD050816
:10012700E508B41405E4F5080509AF097E001200D7
:030137000380E062
:0C013A00D28C758901758C4B758AFD22F2
:0C00ED00F583E493F580C2A67F057E0039
:1000F900D3EF9400EE940040147D727C00ED1D70E6
:0D010900011CED4C70F7EF1F70E61E80E347
:0101160022C6
:04000300AB07AA0697
:100007007C007D641200988F828E837C007D64AFB4
:1000170003AE021200987E007F0ACFCDCFCECCCEA2
:100027001200988E0A8F0BAE02AF037C007D0A1276
:100037000098AB05AA047580FFD2A77580FEC2A7FA
:10004700D2A6AE83AF8274522FF58274013E12009E
:10005700ED7580FFD2A77580FDC2A7D2A674522581
:100067000BF5827401350A1200ED7580FFD2A77572
:1000770080FBC2A7D2A6AE02AF0374522FF58274DB
:10008700013EF583E493F580C2A67F057E0002005A
:01009700F96F
:03000000020146B4
:0C014600787FE4F6D8FD75810B020117EC
:10009800BC000BBE0029EF8DF084FFADF022E4CC4C
:1000A800F875F008EF2FFFEE33FEEC33FCEE9DEC15
:1000B800984005FCEE9DFE0FD5F0E9E4CEFD22ED5B
:1000C800F8F5F0EE8420D21CFEADF075F008EF2FA5
:1000D800FFED33FD4007985006D5F0F222C398FD96
:0500E8000FD5F0EA2233
:00000001FF
