:10009600E0EE016D016D01EFEFC797F700E7F9811B
:1000A6008181E7E7E7C7C7E78181C7F3F99981C38C
:0800B600C38199F9E39981C3AC
:10000300750E00750F80E4F50AF50BE4F50CF50D9C
:10001300E4F508F509E50BAE0A7803C333CE33CE16
:10002300D8F92496F58274003EF583E5822509F517
:1000330082E5833508F583E493FF7E001200BEAFAB
:100043000FAE0E1200BED2B6C2B6AF0F7801EF08E4
:10005300800103D8FD750E00F50F0509E50970024F
:100063000508C39408E508940040AA050DE50D7042
:1000730002050CC39464E50C94004094050BE50B56
:100083007002050AC39405E50A9400500302000EAA
:030093000200095F
:1000BE00E4FDFCC2B5C2B6EF30E004D2B48002C299
:1000CE00B4EEC313FEEF13FFD2B50DBD00010CED60
:0500DE0064084C70DE17
:0100E30022FA
:030000000200E417
:0C00E400787FE4F6D8FD75810F02000360
:00000001FF
