:0D015D003F065B4F666D7D077F6FFEFDFB6B
:0800030012000E12014780FEFD
:10000E00D2AFD2A9D28C438901758CED758AFF22AD
:10014700D2AFD2ACC29FD29ED29CD28E43892075A9
:060157008DFD758BFD22F9
:03000B000200E20E
:1000E200C0E0C0F0C083C082C0D075D000C000C0E4
:1000F20001C002C003C004C005C006C007758CED74
:10010200758AFFAF0AAE09120026D007D006D005C5
:10011200D004D003D002D001D000D0D0D082D0837E
:05012200D0F0D0E03236
:03002300020127B0
:07012700C0D075D000C00735
:10012E0030980CAF997509008F0AC2980F8F9930CD
:04013E009902C299C7
:05014200D007D0D0320F
:100026007580FFD2A7E50890016793F580C2A7E522
:100036000814600F14602C24027041D2A67C007D47
:10004600648013D2A67C007D6412008D7E007F0A38
:10005600CFCDCFCECCCE12008D745D2FF58274013C
:100066003E8011D2A67C007D0A12008D745D2DF5AE
:100076008274013CF583E493F580C2A60508E50881
:06008600B40303E4F508D9
:01008C002251
:0300000002016A90
:0C016A00787FE4F6D8FD75810A020003DE
:10008D00BC000BBE0029EF8DF084FFADF022E4CC57
:10009D00F875F008EF2FFFEE33FEEC33FCEE9DEC20
:1000AD00984005FCEE9DFE0FD5F0E9E4CEFD22ED66
:1000BD00F8F5F0EE8420D21CFEADF075F008EF2FB0
:1000CD00FFED33FD4007985006D5F0F222C398FDA1
:0500DD000FD5F0EA223E
:00000001FF
