:0A010B003F065B4F666D7D077F6FB6
:03011500010800DE
:10008F00D2A77580FEC2A720B0217F147E00120078
:10009F00ED20B017E508640960020508D2A6E5084F
:1000AF0090010B93F580C2A630B0FD20B1227F14D2
:1000BF007E001200ED20B118E508D3940040021520
:1000CF0008D2A6E50890010B93F580C2A630B1FDCA
:0E00DF00D2A6E50890010B93F580C2A680A979
:1000ED00D3EF9400EE940040147D727C00ED1D70F2
:0D00FD00011CED4C70F7EF1F70E61E80E354
:01010A0022D2
:03000000020003F8
:0C000300787FE4F6D8FD75810802004A01
:10000F0002008FE493A3F8E493A34003F68001F278
:10001F0008DFF48029E493A3F85407240CC8C333F2
:10002F00C4540F4420C8834004F456800146F6DFC1
:10003F00E4800B0102040810204080900115E47E3B
:10004F00019360BCA3FF543F30E509541FFEE493B6
:10005F00A360010ECF54C025E060A840B8E493A37D
:10006F00FAE493A3F8E493A3C8C582C8CAC583CAA8
:10007F00F0A3C8C582C8CAC583CADFE9DEE780BE60
:0101180000E6
:00000001FF
